{
  "contractName": "RecipeList",
  "abi": [
    {
      "constant": true,
      "inputs": [
        {
          "name": "",
          "type": "uint256"
        }
      ],
      "name": "recipeItems",
      "outputs": [
        {
          "name": "id",
          "type": "uint256"
        },
        {
          "name": "commands",
          "type": "bytes32"
        },
        {
          "name": "cooker",
          "type": "address"
        },
        {
          "name": "name",
          "type": "bytes32"
        },
        {
          "name": "price",
          "type": "uint256"
        },
        {
          "name": "total_price",
          "type": "uint256"
        },
        {
          "name": "total_amt",
          "type": "uint256"
        }
      ],
      "payable": false,
      "stateMutability": "view",
      "type": "function"
    },
    {
      "constant": true,
      "inputs": [
        {
          "name": "",
          "type": "uint256"
        }
      ],
      "name": "orders",
      "outputs": [
        {
          "name": "creator",
          "type": "address"
        },
        {
          "name": "price_now",
          "type": "uint256"
        },
        {
          "name": "pay",
          "type": "uint256"
        },
        {
          "name": "amount",
          "type": "uint256"
        }
      ],
      "payable": false,
      "stateMutability": "view",
      "type": "function"
    },
    {
      "constant": true,
      "inputs": [],
      "name": "maxId",
      "outputs": [
        {
          "name": "",
          "type": "uint256"
        }
      ],
      "payable": false,
      "stateMutability": "view",
      "type": "function"
    },
    {
      "payable": false,
      "stateMutability": "nonpayable",
      "type": "fallback"
    },
    {
      "constant": false,
      "inputs": [
        {
          "name": "_name",
          "type": "bytes32"
        },
        {
          "name": "_price",
          "type": "uint256"
        },
        {
          "name": "_commands",
          "type": "bytes32"
        }
      ],
      "name": "addRecipeItem",
      "outputs": [
        {
          "name": "success",
          "type": "bool"
        }
      ],
      "payable": false,
      "stateMutability": "nonpayable",
      "type": "function"
    },
    {
      "constant": true,
      "inputs": [],
      "name": "getRecipeItems",
      "outputs": [
        {
          "name": "",
          "type": "uint256[]"
        },
        {
          "name": "",
          "type": "bytes32[]"
        },
        {
          "name": "",
          "type": "address[]"
        },
        {
          "name": "",
          "type": "bytes32[]"
        },
        {
          "name": "",
          "type": "uint256[]"
        },
        {
          "name": "",
          "type": "uint256[]"
        }
      ],
      "payable": false,
      "stateMutability": "view",
      "type": "function"
    },
    {
      "constant": true,
      "inputs": [
        {
          "name": "_id",
          "type": "uint256"
        }
      ],
      "name": "getRecipeInfo",
      "outputs": [
        {
          "name": "",
          "type": "bytes32"
        },
        {
          "name": "",
          "type": "address"
        },
        {
          "name": "",
          "type": "bytes32"
        },
        {
          "name": "",
          "type": "uint256"
        },
        {
          "name": "",
          "type": "uint256"
        },
        {
          "name": "",
          "type": "uint256"
        }
      ],
      "payable": false,
      "stateMutability": "view",
      "type": "function"
    }
  ],
  "bytecode": "0x608060405234801561001057600080fd5b50610bd5806100206000396000f300608060405260043610610078576000357c0100000000000000000000000000000000000000000000000000000000900463ffffffff16806326e728541461008a5780637c8cf80c1461012a578063899a52e2146102fe578063a85c38ef146103a5578063c5ea3c6514610427578063deb71d9f14610452575b34801561008457600080fd5b50600080fd5b34801561009657600080fd5b506100b5600480360381019080803590602001909291905050506104b3565b6040518087600019166000191681526020018673ffffffffffffffffffffffffffffffffffffffff1673ffffffffffffffffffffffffffffffffffffffff1681526020018560001916600019168152602001848152602001838152602001828152602001965050505050505060405180910390f35b34801561013657600080fd5b5061013f6105b7565b6040518080602001806020018060200180602001806020018060200187810387528d818151815260200191508051906020019060200280838360005b8381101561019657808201518184015260208101905061017b565b5050505090500187810386528c818151815260200191508051906020019060200280838360005b838110156101d85780820151818401526020810190506101bd565b5050505090500187810385528b818151815260200191508051906020019060200280838360005b8381101561021a5780820151818401526020810190506101ff565b5050505090500187810384528a818151815260200191508051906020019060200280838360005b8381101561025c578082015181840152602081019050610241565b50505050905001878103835289818151815260200191508051906020019060200280838360005b8381101561029e578082015181840152602081019050610283565b50505050905001878103825288818151815260200191508051906020019060200280838360005b838110156102e05780820151818401526020810190506102c5565b505050509050019c5050505050505050505050505060405180910390f35b34801561030a57600080fd5b506103296004803603810190808035906020019092919050505061090c565b6040518088815260200187600019166000191681526020018673ffffffffffffffffffffffffffffffffffffffff1673ffffffffffffffffffffffffffffffffffffffff168152602001856000191660001916815260200184815260200183815260200182815260200197505050505050505060405180910390f35b3480156103b157600080fd5b506103d06004803603810190808035906020019092919050505061097d565b604051808573ffffffffffffffffffffffffffffffffffffffff1673ffffffffffffffffffffffffffffffffffffffff16815260200184815260200183815260200182815260200194505050505060405180910390f35b34801561043357600080fd5b5061043c6109dc565b6040518082815260200191505060405180910390f35b34801561045e57600080fd5b5061049960048036038101908080356000191690602001909291908035906020019092919080356000191690602001909291905050506109e2565b604051808215151515815260200191505060405180910390f35b6000806000806000806000878154811015156104cb57fe5b9060005260206000209060070201600101546000888154811015156104ec57fe5b906000526020600020906007020160020160009054906101000a900473ffffffffffffffffffffffffffffffffffffffff1660008981548110151561052d57fe5b90600052602060002090600702016003015460008a81548110151561054e57fe5b90600052602060002090600702016004015460008b81548110151561056f57fe5b90600052602060002090600702016005015460008c81548110151561059057fe5b90600052602060002090600702016006015495509550955095509550955091939550919395565b6060806060806060806000606080606080606080600080805490509750876040519080825280602002602001820160405280156106035781602001602082028038833980820191505090505b509650876040519080825280602002602001820160405280156106355781602001602082028038833980820191505090505b509550876040519080825280602002602001820160405280156106675781602001602082028038833980820191505090505b509450876040519080825280602002602001820160405280156106995781602001602082028038833980820191505090505b509350876040519080825280602002602001820160405280156106cb5781602001602082028038833980820191505090505b509250876040519080825280602002602001820160405280156106fd5781602001602082028038833980820191505090505b509150600090505b878110156108ea5760008181548110151561071c57fe5b906000526020600020906007020160000154878281518110151561073c57fe5b906020019060200201818152505060008181548110151561075957fe5b906000526020600020906007020160010154868281518110151561077957fe5b9060200190602002019060001916908160001916815250506000818154811015156107a057fe5b906000526020600020906007020160020160009054906101000a900473ffffffffffffffffffffffffffffffffffffffff1685828151811015156107e057fe5b9060200190602002019073ffffffffffffffffffffffffffffffffffffffff16908173ffffffffffffffffffffffffffffffffffffffff168152505060008181548110151561082b57fe5b906000526020600020906007020160030154848281518110151561084b57fe5b90602001906020020190600019169081600019168152505060008181548110151561087257fe5b906000526020600020906007020160040154838281518110151561089257fe5b90602001906020020181815250506000818154811015156108af57fe5b90600052602060002090600702016006015482828151811015156108cf57fe5b90602001906020020181815250508080600101915050610705565b8686868686869d509d509d509d509d509d505050505050505050909192939495565b60008181548110151561091b57fe5b90600052602060002090600702016000915090508060000154908060010154908060020160009054906101000a900473ffffffffffffffffffffffffffffffffffffffff16908060030154908060040154908060050154908060060154905087565b60028181548110151561098c57fe5b90600052602060002090600402016000915090508060000160009054906101000a900473ffffffffffffffffffffffffffffffffffffffff16908060010154908060020154908060030154905084565b60015481565b60006109ec610b4f565b600180540160018190555060015481600001818152505033816040019073ffffffffffffffffffffffffffffffffffffffff16908173ffffffffffffffffffffffffffffffffffffffff168152505084816060019060001916908160001916815250508381608001818152505060008160a001818152505060008160c0018181525050828160200190600019169081600019168152505060008190806001815401808255809150509060018203906000526020600020906007020160009091929091909150600082015181600001556020820151816001019060001916905560408201518160020160006101000a81548173ffffffffffffffffffffffffffffffffffffffff021916908373ffffffffffffffffffffffffffffffffffffffff160217905550606082015181600301906000191690556080820151816004015560a0820151816005015560c0820151816006015550505060019150509392505050565b60e0604051908101604052806000815260200160008019168152602001600073ffffffffffffffffffffffffffffffffffffffff1681526020016000801916815260200160008152602001600081526020016000815250905600a165627a7a72305820fb62e1dcc08cdc964bdfb9956665d94f698297d4363e8d5ace03dda40d9d9c740029",
  "source": "pragma solidity ^0.4.22;\r\n\r\n// v0.03 修改js时间不够，把4个合约放进单例，数组遍历\r\n\r\n/// @title 一篇菜谱\r\ncontract RecipeList {\r\n    //一个订单\r\n\tstruct Order {\r\n\t\taddress creator;//订菜客户或炒菜的厨师\r\n\t\tuint price_now; //菜价\r\n\t\tuint pay;       //支付菜价\r\n\t\tuint amount;    //份数\r\n    }\r\n\r\n\t//一篇菜谱\r\n\tstruct Recipe {\r\n\t\tuint id ;\r\n\t\t//bytes32 ingredient;//菜配料表\r\n\t\tbytes32 commands;  //炒菜指令序列\r\n\t\taddress cooker ;   //上传菜谱的厨师\r\n\t\tbytes32 name;      //菜名\r\n\t\tuint price;        //菜价\r\n\t\tuint total_price;  //总菜价\r\n\t\tuint total_amt;    //订购总数\r\n\t\t//uint flover;       //点赞鲜花数\r\n\t\t//uint egg;          //吐槽鸡蛋数\r\n\t}\r\n\t\r\n\tRecipe[] public recipeItems; //菜谱清单\r\n\tuint public maxId ;\r\n\t\r\n\tOrder[] public orders;    //购买记录\r\n\r\n\r\n    //新建一篇菜谱\r\n    function addRecipeItem(\r\n\t\tbytes32 _name,\r\n\t\tuint _price,\r\n\t\t//bytes32 _ingredient,\r\n\t\tbytes32 _commands\r\n\t) public returns (bool success){\r\n\t\tmaxId = maxId +1 ;\r\n\t\tRecipe memory item;\r\n\t\t\r\n        item.id = maxId;\r\n\t\titem.cooker = msg.sender;//上传菜谱的厨师\r\n\t\titem.name = _name;        //菜名\r\n\t\titem.price = _price;      //菜价\r\n\t\titem.total_price =0 ;     //总菜价\r\n\t\titem.total_amt = 0 ;      //订购总数\r\n\t\t//item.ingredient = _ingredient;//菜配料表\r\n\t\titem.commands = _commands ;  //炒菜指令序列\r\n\t\t\r\n\t\trecipeItems.push(item);\r\n\t\treturn true;\r\n    }\r\n\tfunction getRecipeItems() public constant returns (\r\n\t\tuint[],\r\n\t\t//bytes32[],\r\n\t\tbytes32[],\r\n\t\taddress[],\r\n\t\tbytes32[],\r\n\t\tuint[],\r\n\t\t//uint[],\r\n\t\tuint[]\r\n\t\t//uint[],\r\n\t\t//uint[]\r\n\t\r\n\t){\r\n\t\tuint length = recipeItems.length;\r\n\r\n\t\tuint[] memory a_id = new uint[](length);\r\n\t\t//bytes32[] memory a_ingredient= new bytes32[](length);//菜配料表\r\n\t\tbytes32[] memory a_commands  = new bytes32[](length);//炒菜指令序列\r\n\t\taddress[] memory a_cooker    = new address[](length);//上传菜谱的厨师\r\n\t\tbytes32[] memory a_name      = new bytes32[](length);//菜名\r\n\t\tuint[] memory a_price        = new uint[](length);//菜价\r\n\t\t//uint[] memory a_total_price  = new uint[](length);//总菜价\r\n\t\tuint[] memory a_total_amt    = new uint[](length);//订购总数\r\n\t\t//uint[] memory a_flover       = new uint[](length);//点赞鲜花数\r\n\t\t//uint[] memory a_egg          = new uint[](length);//吐槽鸡蛋数\r\n\r\n\t\tfor (uint i = 0; i < length; i++) {\r\n\t\t\ta_id[i] = recipeItems[i].id;\r\n\t\t\t//a_ingredient[i] = recipeItems[i].ingredient; //菜配料表\r\n\t\t\ta_commands[i] = recipeItems[i].commands;   //炒菜指令序列\r\n\t\t\ta_cooker[i] = recipeItems[i].cooker;     //上传菜谱的厨师\r\n\t\t\ta_name[i] = recipeItems[i].name;       //菜名\r\n\t\t\ta_price[i] = recipeItems[i].price;      //菜价\r\n\t\t\t//a_total_price[i] = recipeItems[i].total_price;//总菜价\r\n\t\t\ta_total_amt[i] = recipeItems[i].total_amt;  //订购总数\r\n\t\t\t//a_flover[i] = recipeItems[i].flover;     //点赞鲜花数\r\n\t\t\t//a_egg[i] = recipeItems[i].egg;         //吐槽鸡蛋数\r\n\t\t}\r\n\r\n        return (\r\n\t\t\ta_id,\r\n\t\t\t//a_ingredient, //菜配料表\r\n\t\t\ta_commands,   //炒菜指令序列\r\n\t\t\ta_cooker,     //上传菜谱的厨师\r\n\t\t\ta_name,       //菜名\r\n\t\t\ta_price,      //菜价\r\n\t\t\t//a_total_price,//总菜价\r\n\t\t\ta_total_amt  //订购总数\r\n\t\t\t//a_flover,     //点赞鲜花数\r\n\t\t\t//a_egg         //吐槽鸡蛋数\r\n\t\t);\r\n\t}\r\n\t/*\r\n  \r\n    // 调整价格\r\n    function changePrice(uint _id,uint _price) public {\r\n        require(\r\n            msg.sender == recipeItems[_id].cooker,\r\n            \"Only cooker can change price .\"\r\n        );\r\n        recipeItems[_id].price = _price;\r\n    }\r\n\t\r\n    // 点赞鲜花\r\n    function giveFlover(uint _id) public {\r\n\t\trecipeItems[_id].flover = recipeItems[_id].flover +1 ;\r\n    }\r\n\t\r\n    // 吐槽鸡蛋\r\n    function givEgg(uint _id) public {\r\n        recipeItems[_id].egg = recipeItems[_id].egg + 1;\r\n    }\r\n\t/////////////////////////////// TODO\r\n\tevent Purchase();\r\n    // 购买\r\n    function buy(uint _amount) public payable{\r\n        require(\r\n            revoked,\r\n            \"The recipe already revoked.\"\r\n        );\r\n        require(\r\n            price*_amount == msg.value,\r\n            \"pay amount is incorrect.\"\r\n        );\r\n\t\tcooker.transfer(msg.value);\r\n\t\ttotal_price = total_price + msg.value ;//总菜价\r\n\t\ttotal_amt   = total_amt   + _amount;   //订购总数\r\n\t\torders.push(Order({\r\n\t\t\tcreator   : msg.sender,//订菜客户或炒菜的厨师\r\n\t\t\tprice_now : price,     //菜价\r\n\t\t\tpay       : msg.value, //支付菜价\r\n\t\t\tamount    :_amount     //份数\r\n\t\t}));\r\n\t\temit Purchase();\r\n    }\r\n\t\r\n\t*/\r\n   // Read function to fetch variable message\r\n    function getRecipeInfo(uint _id) public view returns (\r\n\t\t//bytes32,\r\n\t\tbytes32,\r\n\t\taddress,\r\n\t\tbytes32,\r\n\t\tuint,\r\n\t\t//bool,\r\n\t\tuint,\r\n\t\tuint\r\n\t\t//uint,\r\n\t\t//uint\r\n\t\r\n\t) {\r\n        return (\r\n\t\t\t//recipeItems[_id].ingredient, //菜配料表\r\n\t\t\trecipeItems[_id].commands,   //炒菜指令序列\r\n\t\t\trecipeItems[_id].cooker,     //上传菜谱的厨师\r\n\t\t\trecipeItems[_id].name,       //菜名\r\n\t\t\trecipeItems[_id].price,      //菜价\r\n\t\t\t//recipeItems[_id].revoked,    //作废否\r\n\t\t\trecipeItems[_id].total_price,//总菜价\r\n\t\t\trecipeItems[_id].total_amt  //订购总数\r\n\t\t\t//recipeItems[_id].flover,     //点赞鲜花数\r\n\t\t\t//recipeItems[_id].egg         //吐槽鸡蛋数\r\n\t\t);\r\n    }\r\n\t\r\n\tfunction() public { revert(); }\r\n}",
  "sourcePath": "/Users/dabai/workspace/tron/tron_boilerplate/contracts/RecipeList.sol",
  "compiler": {
    "name": "solc",
    "version": "0.4.24-develop.2018.8.28+commit.3ba0cdec.mod.Emscripten.clang"
  },
  "schemaVersion": "2.0.1",
  "updatedAt": "2019-01-13T03:41:59.609Z"
}